:100000000C9467000C948F000C948F000C948F005C
:100010000C948F000C948F000C948F000C948F0024
:100020000C948F000C948F000C948F000C948F0014
:100030000C948F000C948F000C948F000C948F0004
:100040000C94F9020C948F000C9469030C944303F4
:100050000C948F000C948F000C948F000C948F00E4
:100060000C948F000C948F0007634236B79BD8A77F
:100070001A39685618AEBAAB558C1D3CB7CC5763CD
:10008000BD6DEDFD753EF6177231BF000000803F7B
:100090004E414E494E495459494E46CDCCCC3D0A6D
:1000A000D7233C17B7D13877CC2B329595E6241F50
:1000B000B14F0A000020410000C84200401C462009
:1000C000BCBE4CCA1B0E5AAEC59D74005506112409
:1000D0001FBECFEFD8E0DEBFCDBF24E0A6EAB3E07D
:1000E00001C01D92A13DB207E1F713E0A0E0B1E02D
:1000F000E4E2F8E102C005900D92A63AB107D9F703
:1001000010E0C7E6D0E004C02197FE010E94E00B9A
:10011000C636D107C9F70E949B030C94100C0C94AF
:100120000000AF92BF92CF92DF92EF92FF920F93B7
:100130001F93CF93DF936C017B018B01040F151F7D
:10014000EB015E01AE18BF08C017D10759F06991E5
:10015000D601ED91FC910190F081E02DC601099549
:10016000892B79F7C501DF91CF911F910F91FF90F6
:10017000EF90DF90CF90BF90AF900895FC01538D2A
:10018000448D252F30E0842F90E0821B930B541771
:1001900010F0CF96089501970895FC01918D828DFE
:1001A000981761F0A28DAE0FBF2FB11D5D968C9197
:1001B000928D9F5F9F73928F90E008958FEF9FEFD6
:1001C0000895FC01918D828D981731F0828DE80F92
:1001D000F11D858D90E008958FEF9FEF0895FC014C
:1001E000918D228D892F90E0805C9F4F821B910919
:1001F0008F739927089580E394E00E94EF0021E037
:10020000892B09F420E0822F089580E090E0892B6B
:1002100029F00E94FB0081110C9400000895FC015C
:10022000A48DA80FB92FB11DA35ABF4F2C91848D57
:1002300090E001968F739927848FA689B7892C93B4
:10024000A089B1898C91837080648C93938D848D07
:10025000981306C00288F389E02D80818F7D80830A
:100260000895EF92FF920F931F93CF93DF93EC01CA
:1002700081E0888F9B8D8C8D98131AC0E889F9894D
:10028000808185FF15C09FB7F894EE89FF89608350
:10029000E889F98980818370806480839FBF81E0D1
:1002A00090E0DF91CF911F910F91FF90EF90089513
:1002B000F62E0B8D10E00F5F1F4F0F731127E02EEE
:1002C0008C8D8E110CC00FB607FCFACFE889F98926
:1002D000808185FFF5CFCE010E940F01F1CFEB8D1C
:1002E000EC0FFD2FF11DE35AFF4FF0829FB7F894FA
:1002F0000B8FEA89FB8980818062CFCF682F80E3F2
:1003000094E00C943101CF93DF93EC01888D882326
:10031000B9F0AA89BB89E889F9898C9185FD03C068
:10032000808186FD0DC00FB607FCF7CF8C9185FF4D
:10033000F2CF808185FFEDCFCE010E940F01E9CF82
:10034000DF91CF910895FC0101900020E9F73197EA
:10035000AF01481B590BBC0180E394E00C94910061
:100360008EEB91E00C94A3018F929F92AF92BF927B
:100370000F931F93CF93DF93CDB7DEB7A1970FB63F
:10038000F894DEBF0FBECDBF19A2423008F44AE098
:100390008E010F5D1F4F842E912CB12CA12CA50135
:1003A00094010E94BE0BE62FB901CA01EA30F4F4B1
:1003B000E05DD801EE938D01232B242B252B79F7BB
:1003C00090E080E0109719F0CD010E94A301A19662
:1003D0000FB6F894DEBF0FBECDBFDF91CF911F9156
:1003E0000F91BF90AF909F908F900895E95CE1CFFF
:1003F000CF93DF930E94A301EC010E94B0018C0F08
:100400009D1FDF91CF91089581EC91E00E94F8014A
:1004100089ED91E00E94F80186EE91E00E94F801DA
:100420008DEE91E00C94F8014F925F926F927F9263
:100430008F929F92AF92BF92CF92DF92EF92FF92F4
:100440000F931F93CF936B017C01742EAC019B0122
:100450000E94AB0B882399F083EF91E0CF911F911D
:100460000F91FF90EF90DF90CF90BF90AF909F9053
:100470008F907F906F905F904F900C94A3014601F6
:100480005701E894B7F82FEF3FEF4FE75FE7C5015B
:10049000B4010E94AB0B81110DC02FEF3FEF4FE76E
:1004A0005FE7C501B4010E94490818161CF487EFE4
:1004B00091E0D4CF2FEF3FEF4FE75FE4C701B601E4
:1004C0000E94300B18161CF48BEF91E0C7CF2FEF72
:1004D0003FEF4FE75FECC701B6010E94490887FD77
:1004E000F3CF20E030E0A901C701B6010E9449081E
:1004F00010E000E087FF08C08DE20E947E018C01C1
:10050000F7FAF094F7F8F094C0E060E070E080E073
:100510009FE37C1641F020E030E040E251E40E948D
:100520002E0ACF5FF6CFA70196010E94C2092B01C8
:100530003C010E94DA0A4B015C014AE00E94B401CE
:100540007C01E00EF11ECC23B1F1C501B4010E9483
:100550004E089B01AC01C301B2010E94C1094B01CD
:100560005C018EE20E947E01E80EF91EC15018F176
:1005700020E030E040E251E4C501B4010E94AF0840
:100580002B013C010E94DA0A4B01B12CA12C4AE05C
:10059000C501B4010E94B401E80EF91EC501B40101
:1005A0000E944E089B01AC01C301B2010E94C10927
:1005B0004B015C01DBCFC701CF911F910F91FF90E1
:1005C000EF90DF90CF90BF90AF909F908F907F90F3
:1005D0006F905F904F900895CF93DF9342E00E9419
:1005E0001402EC010E94B0018C0F9D1FDF91CF918E
:1005F00008951F920F920FB60F9211242F933F93DD
:100600008F939F93AF93BF9380912C0490912D046F
:10061000A0912E04B0912F0430912B0423E0230FDE
:100620002D3758F50196A11DB11D20932B04809301
:100630002C0490932D04A0932E04B0932F0480914A
:10064000270490912804A0912904B0912A040196CE
:10065000A11DB11D8093270490932804A093290421
:10066000B0932A04BF91AF919F918F913F912F91A9
:100670000F900FBE0F901F90189526E8230F02963B
:10068000A11DB11DD2CF1F920F920FB60F92112450
:100690002F933F934F935F936F937F938F939F938A
:1006A000AF93BF93EF93FF9380E394E00E940F0119
:1006B000FF91EF91BF91AF919F918F917F916F913A
:1006C0005F914F913F912F910F900FBE0F901F9010
:1006D00018951F920F920FB60F9211242F938F939C
:1006E0009F93EF93FF93E0914004F0914104808148
:1006F000E0914604F091470482FD1BC090818091F7
:1007000049048F5F8F7320914A04821741F0E09172
:100710004904F0E0E05DFB4F958F80934904FF9121
:10072000EF919F918F912F910F900FBE0F901F907F
:1007300018958081F4CF789484B5826084BD84B5A7
:10074000816084BD85B5826085BD85B5816085BDCC
:1007500080916E00816080936E0010928100809184
:10076000810082608093810080918100816080930C
:100770008100809180008160809380008091B10031
:1007800084608093B1008091B00081608093B0005C
:1007900080917A00846080937A0080917A008260F0
:1007A00080937A0080917A00816080937A008091B2
:1007B0007A00806880937A001092C100E091400432
:1007C000F091410482E08083E0913C04F0913D048B
:1007D0001082E0913E04F0913F0480E1808310920A
:1007E0004804E0914404F091450486E08083E09160
:1007F0004204F0914304808180618083E09142044F
:10080000F0914304808188608083E0914204F091FC
:100810004304808180688083E0914204F091430426
:1008200080818F7D80838FEF91E00E94F8010E948C
:100830000402992493944FE1842E50E0252E50E039
:10084000352E80E394E00E94EF00209126041816D4
:1008500019064CF521112AC080E394E00E94CD00D6
:100860009091A7039923D1F09091A603E92FF0E08E
:10087000EA51FC4F8A3051F080839F5F903218F02C
:100880008092A603DECF9093A603DBCF1082109256
:10089000A7031092A60390922604D3CF8E3389F635
:1008A0009092A703CECF222309F484C066EE73E0B2
:1008B00086E094E00E94EF0B6CE172E086EE93E03C
:1008C0000E94E60B892B09F081C084E292E00E942D
:1008D000F8010E94B001CCE0D1E030E0C32E31E05D
:1008E000D32E7E012CE0E20EF11C8E01412C512C06
:1008F0003201F80161917191819191918F01F6011D
:1009000021913191419151916F010E94AF089B015A
:10091000AC01C301B2010E94C2092B013C01E016E7
:10092000F10639F790580E94A80A2B013C0180E695
:1009300092E00E94A301688179818A819B8142E0D3
:100940000E94140280E20E947E016C817D818E8172
:100950009F8142E00E94140280E20E947E0168852D
:1009600079858A859B8542E00E94140280E20E947C
:100970007E018BE692E00E94A30120E030E040E897
:100980005FE3C301B2010E94C2099B01AC0160E0B8
:1009900070E080E89FE30E942E0A0E94EC02E701CB
:1009A0008CE691E08E159F0509F097CF0E94B0016B
:1009B000109226042114310409F443CF0E94FB0055
:1009C000882309F438CF0E94000033CF6BE772E030
:1009D00086EE93E00E94F60B892B09F4AAC084E806
:1009E00092E00E94F80169E672E086E094E00E94DD
:1009F000A406BC0186EC93E00E94EF0B69E672E06E
:100A000090E080E00E94A4060E9482066093C203E8
:100A10007093C3038093C4039093C50369E672E0A7
:100A200090E080E00E94A4060E9482066093BE03CC
:100A30007093BF038093C0039093C10369E672E093
:100A400090E080E00E94A4060E9482066093BA03B0
:100A50007093BB038093BC039093BD038BEB92E038
:100A60000E94A30186EC93E00E94F80184EC92E0DE
:100A70000E94A3016091C2037091C3038091C403DB
:100A80009091C5030E94EC028EEC92E00E94A301BB
:100A90006091BE037091BF038091C0039091C10328
:100AA0000E94EC0288ED92E00E94A3016091BA03DB
:100AB0007091BB038091BC039091BD030E94EC0236
:100AC00082EE92E00E94F8018091C2039091C303EC
:100AD000A091C403B091C5038093000190930101DC
:100AE000A0930201B09303018091BE039091BF03D4
:100AF000A091C003B091C1038093040190930501BC
:100B0000A0930601B09307018091BA039091BB03B3
:100B1000A091BC03B091BD0380930801909309019B
:100B2000A0930A01B0930B018EEF92E00E94F801AE
:100B30003FCF69E073E086EE93E00E94F60B892BCD
:100B400009F49CC069E672E086E094E00E94A40685
:100B5000BC0186EC93E00E94EF0B69E672E090E046
:100B600080E00E94A4060E9486069093B9038093B9
:100B7000B803813F934009F07EC08FE093E00E946C
:100B8000F80108EA13E02CE0E22E21E0F22ED0E09A
:100B9000C0E090E0C92E91E0D92E5701FCE0AF0EE5
:100BA000B11C412C512C3201F7016191719181915D
:100BB00091917F01F60121913191419151916F0104
:100BC0000E94AF089B01AC01C301B2010E94C2099F
:100BD0002B013C01AE14BF0439F790580E94A80ABB
:100BE00020E030E040E85FE30E94C2099B01AC01D5
:100BF00060E070E080E89FE30E942E0A26E636E679
:100C000046E25FE30E94300B181664F581E090E045
:100C1000F80191838083CC0FDD1FF80181919191C0
:100C20008F01C82BD92B88EB93E08E179F0709F013
:100C3000B0CF0E94B001CC34D105C1F488E393E079
:100C40000E94A301CEE7D1E01CE48881229681278F
:100C50000E947E01EEEBF1E0EC17FD07B1F70E9478
:100C6000B001A4CEF80111821082D5CF84E493E0C4
:100C70000E94F8019BCE8EE793E058CF67EE71E0BB
:100C800086EE93E00E94E60B009719F4FC010995AB
:100C90008FCE6EEE71E086EE93E00E94E60B892B1C
:100CA00009F086CE0E94040283CEE0E3F4E01382D2
:100CB000128288EE93E0A0E0B0E084839583A6835F
:100CC000B78380E791E09183808385EC90E09587FE
:100CD000848784EC90E09787868780EC90E0918B06
:100CE000808B81EC90E0938B828B82EC90E0958BF3
:100CF000848B86EC90E0978B868B118E128E138EF0
:100D0000148E0895662777270C94D806FC0188274F
:100D10009927E89421912032E9F3293010F02E3000
:100D2000C8F32B3241F02D3239F4689404C00E948C
:100D3000D006820F911D219120532A30C0F31EF45A
:100D4000909581959F4F08954DEC54E00E94A9061F
:100D50000895FA01A191B081009719F41097E1F07C
:100D6000CD01DC01CD010D90002011F4C00113C0B4
:100D7000FB012191222319F02015D9F7F3CFFB01B4
:100D80002191201519F41E92119606C02223C1F755
:100D90000D900020A1F7D001FA01A193B08308952E
:100DA0007AE0979F902D879F802D910D11240895B3
:100DB000B0E0A0E0EEEDF6E00C9481095C017B016F
:100DC0006115710519F0DB018D939C9385010F5F0F
:100DD0001F4FF501D0818D2F90E00E9428086C01F3
:100DE000892BB9F5DD32B9F50F5F1F4FD50111968B
:100DF000DC91C1E05801F1E0AF1AB10843E050E0E6
:100E000068E970E0C5010E943108892B69F5680125
:100E100082E0C80ED11C45E050E063E970E0C601F5
:100E20000E943108892B21F4680197E0C90ED11C7A
:100E3000E114F10419F0D701CD92DC9260E070E08A
:100E400080E89FEFC111FFC060E070E080E89FE79D
:100E5000FAC05801BBCFDB3229F485010E5F1F4F6A
:100E6000F501D181C0E0C6CF43E050E060E970E019
:100E7000C5010E943108892BE9F0F80110E000E07B
:100E800020E030E0A9015F01B0ED8B2E8D0E89E0EE
:100E90008815C8F19C2E689491F88C2F8870C2FF39
:100EA00016C0811102C00F5F1F4F3196D501DC9132
:100EB000C92DE9CFE114F10429F00E5F1F4FF701AE
:100EC0001183008360E070E080EC9FE7BCC0882362
:100ED00011F001501109A5E0B0E00E9470099B01DA
:100EE000AC01220F331F441F551F280D311D411D1A
:100EF000511D283999E93907490799E15907A8F29D
:100F0000C6609C2ED2CFAEEF8A1206C0C3FD3CC095
:100F10009C2E689493F8C9CFDF7DD534A9F58081E4
:100F20008D3239F4C061DF011296818162E070E098
:100F300006C0DF018B32C1F3119661E070E080538F
:100F40005D01A61AB70A8A30F8F4E0E8CE16ECE0A4
:100F5000DE065CF4B601660F771F660F771FC60EBC
:100F6000D71ECC0CDD1CC80ED11C5D01FFEFAF1AE3
:100F7000BF0A8C9180538A30A8F1C4FF03C0D1947A
:100F8000C194D1080C0D1D1DC1FF09C0E114F1046D
:100F900031F081E0A81AB108D701AD92BC92CA0124
:100FA000B9010E944E08C370C33009F490584B0138
:100FB0005C0120E030E0A9010E944908882309F47F
:100FC00040C0C7ECD0E017FF05C01195019511098D
:100FD000CFEAD0E06E01B8E1CB1AD10880E2E82E6A
:100FE000F12C0FC0D501B1CFFE012591359145916E
:100FF00054910E191F09C501B4010E94AF084B019D
:101000005C01D501C4010E151F0574F72497F594F2
:10101000E794CC16DD06A9F78A2F880F8B2F881F3F
:101020008F3F49F020E030E0A901C501B4010E94E2
:101030004908811106C082E290E09093D004809329
:10104000CF04C501B401CDB7DEB7ECE00C949D0927
:1010500091110C941C09803219F089508550C8F701
:101060000895FB01DC014150504088F08D9181349E
:101070001CF08B350CF4805E659161341CF06B358F
:101080000CF4605E861B611171F3990B0895881B47
:10109000FCCF0E948B0808F481E00895E89409C011
:1010A00097FB3EF490958095709561957F4F8F4F9B
:1010B0009F4F9923A9F0F92F96E9BB279395F695B1
:1010C000879577956795B795F111F8CFFAF4BB0F2F
:1010D00011F460FF1BC06F5F7F4F8F4F9F4F16C093
:1010E000882311F096E911C0772321F09EE8872F1D
:1010F000762F05C0662371F096E8862F70E060E0D9
:101100002AF09A95660F771F881FDAF7880F969551
:10111000879597F90895990F0008550FAA0BE0E8F5
:10112000FEEF16161706E807F907C0F012161306A9
:10113000E407F50798F0621B730B840B950B39F4E9
:101140000A2661F0232B242B252B21F408950A264F
:1011500009F4A140A6958FEF811D811D08950E947D
:10116000C2080C9436090E94280938F00E942F0901
:1011700020F0952311F00C941F090C9425091124DB
:101180000C946A090E94470970F3959FC1F3950F6B
:1011900050E0551F629FF001729FBB27F00DB11DFB
:1011A000639FAA27F00DB11DAA1F649F6627B00D8B
:1011B000A11D661F829F2227B00DA11D621F739F74
:1011C000B00DA11D621F839FA00D611D221F749F82
:1011D0003327A00D611D231F849F600D211D822FC9
:1011E000762F6A2F11249F5750409AF0F1F08823F0
:1011F0004AF0EE0FFF1FBB1F661F771F881F91501D
:101200005040A9F79E3F510580F00C941F090C94A3
:101210006A095F3FE4F3983ED4F386957795679526
:10122000B795F795E7959F5FC1F7FE2B880F911D46
:101230009695879597F9089599278827089597F99E
:101240009F6780E870E060E008959FEF80EC08956C
:1012500000240A9416161706180609060895002495
:101260000A9412161306140605060895092E03940F
:10127000000C11F4882352F0BB0F40F4BF2B11F483
:1012800060FF04C06F5F7F4F8F4F9F4F089557FDE2
:101290009058440F551F59F05F3F71F04795880FE4
:1012A00097FB991F61F09F3F79F08795089512167B
:1012B00013061406551FF2CF4695F1DF08C0161627
:1012C00017061806991FF1CF8695710561050894D8
:1012D0000895E894BB2766277727CB0197F90895EF
:1012E0000E94B209A59F900DB49F900DA49F800D00
:1012F000911D112408952F923F924F925F926F9209
:101300007F928F929F92AF92BF92CF92DF92EF9295
:10131000FF920F931F93CF93DF93CDB7DEB7CA1B16
:10132000DB0B0FB6F894DEBF0FBECDBF09942A8841
:10133000398848885F846E847D848C849B84AA84E9
:10134000B984C884DF80EE80FD800C811B81AA8176
:10135000B981CE0FD11D0FB6F894DEBF0FBECDBF41
:10136000ED010895A29FB001B39FC001A39F700D2E
:10137000811D1124911DB29F700D811D1124911D9D
:1013800008955058BB27AA270E94D9090C94360902
:101390000E94280938F00E942F0920F039F49F3F5D
:1013A00019F426F40C9425090EF4E095E7FB0C944F
:1013B0001F09E92F0E94470958F3BA1762077307FC
:1013C0008407950720F079F4A6F50C9469090EF4CA
:1013D000E0950B2EBA2FA02D0B01B90190010C0145
:1013E000CA01A0011124FF27591B99F0593F50F45D
:1013F000503E68F11A16F040A22F232F342F4427B5
:10140000585FF3CF469537952795A795F0405395AC
:10141000C9F77EF41F16BA0B620B730B840BBAF07C
:101420009150A1F0FF0FBB1F661F771F881FC2F7E7
:101430000EC0BA0F621F731F841F48F487957795FB
:101440006795B795F7959E3F08F0B0CF9395880FB5
:1014500008F09927EE0F9795879508950E94420A04
:101460000C9436090E942F0958F00E94280940F078
:1014700029F45F3F29F00C941F0951110C946A095B
:101480000C9425090E94470968F39923B1F3552369
:1014900091F3951B550BBB27AA2762177307840787
:1014A00038F09F5F5F4F220F331F441FAA1FA9F31D
:1014B00035D00E2E3AF0E0E832D091505040E6950B
:1014C000001CCAF72BD0FE2F29D0660F771F881F6C
:1014D000BB1F261737074807AB07B0E809F0BB0B5F
:1014E000802DBF01FF2793585F4F3AF09E3F510573
:1014F00078F00C941F090C946A095F3FE4F3983E5E
:10150000D4F3869577956795B795F7959F5FC9F75B
:10151000880F911D9695879597F90895E1E0660FDC
:10152000771F881FBB1F621773078407BA0720F055
:10153000621B730B840BBA0BEE1F88F7E0950895BE
:1015400029F416F00C941F090C9469090C942509D0
:101550000E944F09A8F39638A0F707F80F92E89475
:101560002BE33AEA48EB5FE70E94C5080F920F921F
:101570000F924DB75EB70F920E94770BE8E6F0E04E
:101580000E94090B4F915F91EF91FF91E595EE1F3E
:10159000FF1F49F0FE57E0684427EE0F441FFA95FD
:1015A000E1F74195550B0E94410B0F9007FE0C94FB
:1015B000350B08950E944F0988F09F5798F0B92F76
:1015C0009927B751B0F0E1F0660F771F881F991F78
:1015D0001AF0BA95C9F714C0B13091F00E946909A8
:1015E000B1E008950C946909672F782F8827B85FB8
:1015F00039F0B93FCCF3869577956795B395D9F7D0
:101600003EF490958095709561957F4F8F4F9F4FD9
:101610000895DF93CF931F930F93FF92EF92DF9282
:101620007B018C01689406C0DA2EEF010E94C2088B
:10163000FE01E894A5912591359145915591A6F328
:10164000EF010E94D909FE019701A801DA9469F718
:10165000DF90EF90FF900F911F91CF91DF91089550
:101660000E948B0808F48FEF08959B01AC0160E0A5
:1016700070E080E89FE30C942E0A0C941F090C94F0
:10168000B00B0E944F09D8F39923C9F3940F511D51
:10169000A3F39150504094F059F0882332F0660F34
:1016A000771F881F91505040C1F79E3F51052CF77E
:1016B000880F911D9695879597F908955F3FACF037
:1016C000983E9CF0BB27869577956795B79508F46B
:1016D000B1609395C1F7BB0F58F711F460FFE8CFE5
:1016E0006F5F7F4F8F4F9F4FE3CF0C946A09FA01D2
:1016F000DC01AA0FBB1F9B01AC01BF5728F42227B6
:1017000033274427507820C0B75190F4AB2F0024E2
:10171000469537952795011CA395D2F3002071F0CB
:10172000220F331F441FB395DAF30ED00C94C10976
:1017300061307105A0E88A07B94630F49B01AC011D
:101740006627772788279078309621F02083318389
:101750004283538308950E948B08880B990B089548
:101760009F3F31F0915020F4879577956795B79515
:10177000880F911D9695879597F90895A1E21A2EE5
:10178000AA1BBB1BFD010DC0AA1FBB1FEE1FFF1F25
:10179000A217B307E407F50720F0A21BB30BE40B75
:1017A000F50B661F771F881F991F1A9469F76095BC
:1017B0007095809590959B01AC01BD01CF01089576
:1017C000EE0FFF1F0590F491E02D0994FB01DC0161
:1017D0008D91019080190110D9F3990B0895FB01A7
:1017E000DC0101900D920020E1F70895FB01519179
:1017F0005523A9F0BF01DC014D9145174111E1F7D7
:1018000059F4CD010190002049F04D91401541114E
:10181000C9F3FB014111EFCF81E090E001970895FA
:04182000F894FFCF6A
:1018240094C41A41EDD454BEFC2594C000000000B9
:1018340000000000000000000000000000000000A4
:101844000000803F000000000000803F0000000016
:10185400000000000000803F0000803F0000803F47
:1018640000000000000000000000803F00000000B5
:101874000000803F0000803F0000803F0000000027
:101884000000803F0000803F0000803F0000000017
:1018940031019100BE008301EF00CD00E10025007D
:1018A4002F0038002A0037001800250022003500D8
:1018B40001000000130025003F0013002F007C00EE
:1018C4007C00200013002E003900380013000D00A6
:1018D4001A001E00130024002100210031000D0A0B
:1018E40000417661696C61626C6520636F6D6D6146
:1018F4006E64732E2E2E2E2E003E4C4F47494E20E2
:101904003C50494E3E003E5245534554003E4845E6
:101914004C50006E616E00696E66006F7666004220
:101924006F6F74696E67206C6F636B206669726D8C
:10193400776172652E2E2E2E2E2E2E005052454487
:101944004943540050726564696374696F6E20631F
:101954006F6D6D616E642064657465637465642C79
:10196400207072696E74696E6720646562756720A1
:10197400696E666F726D6174696F6E2E2E2E2E0005
:101984003320496E707574733A20000946696E619C
:101994006C20526573756C743A2000504152414D6D
:1019A40053455400436F6E66696775726174696F5D
:1019B4006E206D6F64652C20656E7465722072658F
:1019C40071756972656420706172616D65746572A8
:1019D4007320573120573220573300436F6D6D61A8
:1019E4006E64200057656967687420310900576583
:1019F4006967687420320900576569676874203321
:101A04000900526563616C6962726174696E672072
:101A1400776569676874732E2E2E2E2E2E00446F00
:101A24006E652E2E2E2E2E2E004C4F47494E00450D
:101A34006D706C6F7965652050494E2063686563ED
:101A44006B207061737365642E2E2E2028E0B2A083
:101A5400E280BFE0B2A02900436F6E6772617473C5
:101A64003A20090041726520796F7520616E206506
:101A74006D706C6F7965653F204149207369676EAD
:101A8400617475726520646F65736E2774206D616F
:101A94007463682028E0B2A05FE0B2A02900466128
:101AA400696C656420656D706C6F7965652050495B
:101AB4004E20636865636B2E2E2E2028E0B2A05F53
:061AC400E0B2A0290000C1
:00000001FF
